:020000040000FA
:100000000C9463000C948B000C948B000C948B006C
:100010000C948B000C948B000C948B000C948B0034
:100020000C948B000C948B000C948B000C948B0024
:100030000C948B000C948B000C948B000C948B0014
:100040000C941D090C948B000C94EB080C94C508BF
:100050000C948B000C948B000C948B000C948B00F4
:100060000C9467090C948B00000000002500280008
:100070002B0000000000240027002A0000000000E0
:1000800023002600290004040404040404040202DA
:100090000202020203030303030301020408102007
:1000A0004080010204081020010204081020000012
:1000B0000008000201000003040700000000000027
:1000C0000000860A5E0D11241FBECFEFD8E0DEBF10
:1000D000CDBF23E0A4E8B1E001C01D92A932B20770
:1000E000E1F711E0A0E0B1E0E8E9F0E202C005903C
:1000F0000D92A438B107D9F710E0C2E6D0E004C0F1
:100100002197FE010E943E0EC136D107C9F70E9419
:10011000D90A0C943F100C9400006F927F928F923A
:100120009F92AF92BF92CF92DF92EF92FF920F9386
:100130001F93CF93DF93C0916302AC2FB0E020E810
:1001400033E341EE51E00E949B0D4B015C01E2EB79
:10015000F7E09D01C4E6D0E000E911E0CF01825B49
:1001600097408217930794F160906202712C2E548D
:10017000384FC90164E670E00E94EC0D7C01C901B2
:1001800060E971E00E94EC0D6C010EE011E0C1E04D
:10019000D0E0F901E370FF27C615D7050CF03FC08A
:1001A000C230D10569F5309759F5E114F10419F41D
:1001B000C114D10429F5A0E88A0EABE39A1EA6E289
:1001C000AA1EB11C21960F5F1F4FE6CFCF0183708F
:1001D0009927892B99F4CF01BE010E94EC0D892B40
:1001E00031F4CF01B8010E94EC0D892B39F480E87D
:1001F000880E81E5981E81E0A81EB11C3196AECF15
:10020000D8018C91A82FB0E020E831E541E050E022
:100210000E949B0D860E971EA81EB91ED3CF20915B
:100220005F0230E0A0E1BEE00E94DD0D6B017C01C9
:1002300020915E0230E0ACE3B0E00E94DD0DC60E1E
:10024000D71EE81EF91E80915D02C80ED11CE11C6C
:10025000F11CA0916102A150BB0B20E831E541E007
:1002600050E00E94220E6C0D7D1D8E1D9F1D680D9D
:10027000791D8A1D9B1DDF91CF911F910F91FF90DA
:10028000EF90DF90CF90BF90AF909F908F907F9036
:100290006F900895089508950895AF92BF92CF92F8
:1002A000DF92EF92FF920F931F93CF93DF936C0136
:1002B0007B018B01040F151FEB015E01AE18BF0817
:1002C000C017D10759F06991D601ED91FC910190C9
:1002D000F081E02DC6010995892B79F7C501DF91E1
:1002E000CF911F910F91FF90EF90DF90CF90BF9033
:1002F000AF900895FC01538D448D252F30E0842F5D
:1003000090E0821B930B541710F0CF96089501973D
:100310000895FC01918D828D981761F0A28DAE0F2A
:10032000BF2FB11D5D968C91928D9F5F9F73928FB1
:1003300090E008958FEF9FEF0895FC01918D828DDD
:10034000981731F0828DE80FF11D858D90E00895AA
:100350008FEF9FEF0895FC01918D228D892F90E002
:10036000805C9F4F821B91098F739927089584E6C3
:1003700092E00E94AB0121E0892B09F420E0822F5A
:10038000089580E090E0892B29F00E94B701811147
:100390000C9400000895FC01A48DA80FB92FB11D85
:1003A000A35ABF4F2C91848D90E001968F739927AB
:1003B000848FA689B7892C93A089B1898C91837089
:1003C00080648C93938D848D981306C00288F38982
:1003D000E02D80818F7D80830895EF92FF920F93AF
:1003E0001F93CF93DF93EC0181E0888F9B8D8C8DE1
:1003F00098131AC0E889F989808185FF15C09FB7D5
:10040000F894EE89FF896083E889F9898081837097
:10041000806480839FBF81E090E0DF91CF911F9146
:100420000F91FF90EF900895F62E0B8D10E00F5F67
:100430001F4F0F731127E02E8C8D8E110CC00FB63D
:1004400007FCFACFE889F989808185FFF5CFCE01D5
:100450000E94CB01F1CFEB8DEC0FFD2FF11DE35A84
:10046000FF4FF0829FB7F8940B8FEA89FB89808158
:100470008062CFCFCF93DF93EC01888D8823B9F0D2
:10048000AA89BB89E889F9898C9185FD03C080819F
:1004900086FD0DC00FB607FCF7CF8C9185FFF2CF1C
:1004A000808185FFEDCFCE010E94CB01E9CFDF91A6
:1004B000CF910895833081F028F4813099F0823013
:1004C000A9F008958730A9F08830C9F08430B1F4DC
:1004D000809180008F7D03C0809180008F77809312
:1004E0008000089584B58F7784BD089584B58F7D8D
:1004F000FBCF8091B0008F778093B00008958091FA
:10050000B0008F7DF9CF1F93CF93DF93282F30E07A
:10051000F901E255FF4F8491F901E656FF4FD4915E
:10052000F901EA57FF4FC491CC23A9F0162F81118E
:100530000E945A02EC2FF0E0EE0FFF1FE859FF4F28
:10054000A591B4918FB7F894EC91111108C0D09592
:10055000DE23DC938FBFDF91CF911F910895DE2BB7
:10056000F8CF3FB7F89480913B0290913C02A09164
:100570003D02B0913E0226B5A89B05C02F3F19F061
:100580000196A11DB11D3FBFBA2FA92F982F882713
:10059000BC01CD01620F711D811D911D42E0660FEE
:1005A000771F881F991F4A95D1F708958F929F92C0
:1005B000AF92BF92CF92DF92EF92FF924B015C011C
:1005C0000E94B1026B017C010E94B1026C197D098D
:1005D0008E099F09683E734081059105A8F321E0CB
:1005E000821A9108A108B10888EEC80E83E0D81ECF
:1005F000E11CF11C81149104A104B10429F7FF90BE
:10060000EF90DF90CF90BF90AF909F908F90089524
:100610002091C901260F3327331F21323105ECF415
:1006200020911202FC0190E080E0243069F082E029
:100630000895A091C9012191AC0147555E4FA40FC7
:10064000B52FB11D2C930196861798F38091C9019F
:10065000680F6093C90180E0089581E008951092C9
:10066000120281E0809311021092EC0161E082E1BC
:100670000E94830261E083E10E948302E9EBF0E0E3
:1006800080818E7F808380818D7F808388E48093CA
:10069000B80085E48093BC000895CF93DF9391E088
:1006A0009093A8018823B9F0C091B800D091BA0006
:1006B0008091BC008A7B8093BC0060E082E10E9454
:1006C000830260E083E10E9483020E942F03D093A3
:1006D000BA00C093B800DF91CF9108950895E091DA
:1006E000460280914502E81730F4F0E0E857FE4FEB
:1006F000808190E008958FEF9FEF089590914602DA
:10070000809145022FEF3FEF981748F4E92FF0E072
:10071000E857FE4F208130E09F5F90934602C90169
:1007200008958091450290914602891B990B089586
:10073000CF92DF92EF92FF920F931F93CF93DF93AD
:100740007C01CB018A0120911802222389F0EB0160
:100750006B01C40ED51ECC15DD0569F06991D7017A
:10076000ED91FC910190F081E02DC7010995F3CF47
:10077000642F0E940803C801DF91CF911F910F9150
:10078000FF90EF90DF90CF900895CF93DF931F926B
:10079000CDB7DEB76983209118022223F9F02091AA
:1007A0004302203258F021E030E0FC013383228301
:1007B00090E080E00F90DF91CF9108958091440206
:1007C000E82FF0E0E75EFD4F998190838F5F809383
:1007D00044028093430281E090E0ECCF61E0CE01DF
:1007E00001960E940803F7CFCF92DF92EF92FF921B
:1007F0000F931F93CF93DF93FC01C48121E02093DB
:100800001802C09339021092440210924302838569
:10081000682B81E093E00E94C503D0914302D1325E
:1008200008F092C00E94B1026B017C01809112021B
:10083000811165C082E08093120281E080931102F1
:100840008FEF8093100210920F02D0930E02A9E155
:10085000B2E0EEEEF1E080E0D81385C01092ED0139
:100860008091ED01CC0FC82BC093ED018091EC017C
:10087000813009F07CC01092EC010E94B1026B0142
:100880007C018091ED018093BB00809114029091D6
:100890001502A0911602B0911702892B8A2B8B2B7F
:1008A00099F00E94B102009114021091150220915A
:1008B0001602309117026C197D098E099F090617DF
:1008C000170728073907E0F18091BC0083FDD9CFD5
:1008D00085EC8093BC000E94B1026B017C01809189
:1008E0001202823009F445C0809110028F3F61F1FD
:1008F00080911002803241F18091100225C08091D8
:10090000140290911502A0911602B0911702892B42
:100910008A2B8B2B09F48ACF0E94B102009114021A
:100920001091150220911602309117026C197D0961
:100930008E099F09061717072807390708F076CF91
:10094000809113020E944D031092440210924302C0
:1009500010921802DF91CF911F910F91FF90EF90AD
:10096000DF90CF9008959D9191938F5F75CF85EE25
:10097000B0CF8091140290911502A0911602B0910F
:100980001702892B8A2B8B2B09F4A9CF0E94B10265
:100990000091140210911502209116023091170255
:1009A0006C197D098E099F09061717072807390753
:1009B00008F095CFC5CF90E080E008956093510294
:1009C000709352028093530290935402645D7E4F61
:1009D0008F4F9F4F60934D0270934E0280934F0252
:1009E0009093500282E090E090934C0280934B02EF
:1009F0002FB7F8948091470290914802A091490244
:100A0000B0914A022FBF8093550290935602A09353
:100A10005702B093580208954F925F926F927F925F
:100A20008F929F92AF92BF92CF92DF92EF92FF92FE
:100A30000F931F93CF93DF934B015C01809184014F
:100A400090918501A0918601B09187018815990543
:100A5000AA05BB0509F4C6C08CE3C82ED12CE12C35
:100A6000F12CC501A70196010E94000E60935D0262
:100A7000CA01B901A70196010E94000E60935E02AF
:100A8000C501B40120E13EE040E050E00E94000ECC
:100A9000CA01B90128E130E040E050E00E94000EB8
:100AA00060935F02C501B40120E831E541E050E008
:100AB0000E94000E69017A01CA01B9016C5F7F4F83
:100AC0008F4F9F4F27E030E040E050E00E94000E43
:100AD0006F5F60936002412C512C320140E004E6CC
:100AE00010E0C0E9D1E0242F30E02E54384FF90156
:100AF000E370FF273097F9F4C901B8010E94EC0DAB
:100B0000892B31F4C901BE010E94EC0D892B99F4A7
:100B10008EE691E0A0E0B0E0480E591E6A1E7B1EF2
:100B2000D301C201AA27BB27C816D906EA06FB06CD
:100B300038F04F5FD8CF8DE691E0A0E0B0E0ECCF89
:100B400040936302C90164E670E00E94EC0DEC0181
:100B5000C90160E971E00E94EC0D309721F4209703
:100B6000D9F40097C9F04DE651E060E070E0441A16
:100B7000550A660A770AC418D508E608F708AEE0F1
:100B8000B1E020E0213069F43097E9F5209711F4C5
:100B90000097C9F54DE106C04EE651E060E070E017
:100BA000E6CF4C9150E070E060E031E0320FC416C7
:100BB000D506E606F70640F0C41AD50AE60AF70A93
:100BC0001196232F3C30F1F62F5F20936202C394DD
:100BD000C09261028092840190928501A092860168
:100BE000B0928701DF91CF911F910F91FF90EF900D
:100BF000DF90CF90BF90AF909F908F907F906F903D
:100C00005F904F9008954CE1CDCF0F931F93CF93FA
:100C10008C01C62F0E94F4036C2F6460C8010E94EF
:100C2000F4036C2F6B7FC8010E94F40383EC90E007
:100C30000197F1F7CF911F910F9108950F931F9393
:100C4000CF93DF938C01D62FC42F607F642B0E943B
:100C5000050680E1D89FB00111246C2BC801DF91FB
:100C6000CF911F910F910C94050640E061E083E164
:100C700093E00E941E068BE39FE10197F1F7089530
:100C8000CF93DF93823028F090911803986090936F
:100C9000180380931B0362E370E080E090E00E9401
:100CA000D60260911E0383E193E00E94F40368EE94
:100CB00073E080E090E00E94D60260E383E193E07D
:100CC0000E940506CBE4D6E4CE010197F1F760E37C
:100CD00083E193E00E9405062197F1F760E383E149
:100CE00093E00E94050683E592E00197F1F760E248
:100CF00083E193E00E94050660911803606240E082
:100D000083E193E00E941E0684E08093190340E093
:100D10006CE083E193E00E941E060E94350682E0AB
:100D200080931A0340E066E083E193E00E941E0690
:100D300040E062E083E193E00E941E068BE39FE1C6
:100D40000197F1F7DF91CF910895CF93DF93CDB75E
:100D5000DEB728970FB6F894DEBF0FBECDBF98E080
:100D6000E6E0F1E0DE01119601900D929A95E1F72F
:100D700090911B03981708F48FEF90E0880F991F4C
:100D800021E030E02C0F3D1F820F931FFC0160819A
:100D9000606840E083E193E028960FB6F894DEBFE8
:100DA0000FBECDBFDF91CF910C941E0641E00E9493
:100DB0001E0681E090E00895FB0101900020E9F714
:100DC0003197AF01461B570BDC01ED91FC9102807E
:100DD000F381E02D0994CF93DF93BC0184E692E088
:100DE0000E94DC06EC016AE471E084E692E00E9475
:100DF000DC068C0F9D1FDF91CF9108950F931F93F9
:100E0000CF93DF93EC0188819981009759F02A8173
:100E10003B812617370730F081E0DF91CF911F919A
:100E20000F9108958B016F5F7F4F0E94690F0097AC
:100E300059F0998388831B830A832C813D81232B5E
:100E400059F7FC011082E8CF80E0E7CFEF92FF92E4
:100E50000F931F93CF93DF936115710541F480E0E9
:100E6000DF91CF911F910F91FF90EF900895411561
:100E70005105B1F07B01EC010C811D81040F151FA0
:100E8000B8010E94FE06882351F3288139818C81A4
:100E90009D81B701820F931F0E9438101D830C8320
:100EA00081E0DECFCF93DF93EC01888199810097B9
:100EB00011F00E94E00E198218821D821C821B8292
:100EC0001A82DF91CF910895CF93DF93EC01FB015C
:100ED00001900020E9F73197AF01461B570B0E94A4
:100EE0002607811103C0CE010E945207CE01DF9177
:100EF000CF910895CF93DF93EC01FB01448155819D
:100F0000608171810E942607811103C0CE010E9479
:100F10005207CE01DF91CF910895EF92FF920F9388
:100F20001F93CF93DF93EC017B018A01BA010E94EA
:100F3000FE0681110BC0CE010E945207CE01DF9147
:100F4000CF911F910F91FF90EF9008951D830C8317
:100F5000B701888199810E943810F0CFFB01019080
:100F60000020E9F73197AF01461B570B0C948D0712
:100F70000F931F93CF93DF93CDB7DEB762970FB672
:100F8000F894DEBF0FBECDBF8C01CB01F8011182FA
:100F9000108213821282158214824AE0BE016F5FB2
:100FA0007F4F0E94660DBE016F5F7F4FC8010E9498
:100FB000AE0762960FB6F894DEBF0FBECDBFDF91CD
:100FC000CF911F910F910895CF93DF93EC01FB0117
:100FD0008617970749F0608171816115710541F0AD
:100FE000448155810E948D07CE01DF91CF910895F4
:100FF0000E945207F9CFFC011182108213821282E3
:1010000015821482FB0101900020E9F73197AF01AE
:10101000461B570B0C948D07FC0180819181009732
:1010200011F00C94E00E0895EF92FF920F931F932E
:10103000CF93DF93CDB7DEB72C970FB6F894DEBF12
:101040000FBECDBF8C017B016CE471E00E94FB07F9
:10105000B7018AE0E816F10458F5CE0107960E9420
:10106000B80764E571E0CE0101960E94FB07BE015E
:10107000695F7F4FCE0101960E947A07BC01C801CB
:101080000E94E407CE0101960E940C08CE0107964B
:101090000E940C08C8012C960FB6F894DEBF0FBE54
:1010A000CDBFDF91CF911F910F91FF90EF900895E9
:1010B000CE0101960E94B807F801808191810097C6
:1010C000D1F069817A816115710599F0428153816E
:1010D0002D813E814217530760F00E9438108D81A8
:1010E0009E81F801958384831E821D82CE01019624
:1010F000CFCF0E94E00E89819A81F801918380838D
:101100008B819C81938382838D819E81958384834F
:101110001A8219821C821B82E7CF85ED8093BC0066
:101120008091140290911502A0911602B0911702BD
:101130000796A11DB11D23E0B695A79597958795B4
:101140002A95D1F72091BC0024FD03C01092120211
:101150000895409114025091150260911602709109
:101160001702452B462B472B69F30097A105B105C4
:1011700041F025E32A95F1F700000197A109B10993
:10118000E1CF809113020C944D031F920F920FB682
:101190000F9211242F933F934F935F936F937F93FD
:1011A0008F939F93AF93BF93EF93FF9384E692E067
:1011B0000E94CB01FF91EF91BF91AF919F918F91D1
:1011C0007F916F915F914F913F912F910F900FBE43
:1011D0000F901F9018951F920F920FB60F92112427
:1011E0002F938F939F93EF93FF93E0917402F0916D
:1011F00075028081E0917A02F0917B0282FD1BC032
:10120000908180917D028F5F8F7320917E02821783
:1012100041F0E0917D02F0E0EC59FD4F958F809315
:101220007D02FF91EF919F918F912F910F900FBEB3
:101230000F901F9018958081F4CF1F920F920FB6D8
:101240000F9211242F933F938F939F93AF93BF934C
:101250008091470290914802A0914902B0914A02C0
:1012600030913A0223E0230F2D3758F50196A11D46
:10127000B11D20933A028093470290934802A093B5
:101280004902B0934A0280913B0290913C02A091A6
:101290003D02B0913E020196A11DB11D80933B021B
:1012A00090933C02A0933D02B0933E02BF91AF9158
:1012B0009F918F913F912F910F900FBE0F901F9094
:1012C000189526E8230F0296A11DB11DD2CF1F92BB
:1012D0000F920FB60F9211242F933F934F935F936A
:1012E0006F937F938F939F93AF93BF93EF93FF93EE
:1012F0008091B900887F803609F44AC0F0F58832C1
:1013000009F4A7C018F5803109F49BC0B8F488230C
:1013100009F4F9C0883009F494C0FF91EF91BF91AE
:10132000AF919F918F917F916F915F914F913F917D
:101330002F910F900FBE0F901F901895883109F4D0
:1013400088C0803251F78093100214C0803409F4B1
:101350009DC040F48033B9F38833F9F680931002CE
:1013600085ECB0C0803509F485C0883509F496C095
:10137000883499F60E948D08D0CF883909F48CC042
:1013800038F5883729F050F4883611F0803729F67F
:1013900083E0809312021092EB0157C0883809F461
:1013A0007BC0803919F0803809F0B7CF8091EB010C
:1013B000803208F071C0E091EB0181E08E0F8093E4
:1013C000EB018091BB00F0E0E553FE4F80833DC010
:1013D000803B39F0E0F4803A09F479C0883A09F0AA
:1013E0009CCF84E0809312021092CA011092C9012E
:1013F000E0914102F091420209958091C901811169
:101400000FC081E08093C9011092A90109C0803CFE
:1014100009F4A6CF883C09F4A3CF883B09F07DCF1F
:10142000E091CA0181E08E0F8093CA01F0E0E75598
:10143000FE4F80818093BB009091CA018091C901C9
:1014400029C08091ED018093BB0085EC8093BC00A6
:1014500064CF90910F0280910E02981758F5E09199
:101460000F0281E08E0F80930F02F0E0E251FE4FF9
:101470008081E9CFE0910F0281E08E0F80930F020F
:101480008091BB00F0E0E251FE4F808390910F020B
:1014900080910E029817C8F285E8D8CFE0910F022C
:1014A00081E08E0F80930F028091BB00F0E0E2514B
:1014B000FE4F80838091110281115CCF81E0809387
:1014C000EC0184EA8093BC001092120226CF85ECD6
:1014D0008093BC00109212028091EB01803230F4B4
:1014E000E091EB01F0E0E553FE4F10826091EB01DB
:1014F00070E0E0913F02F09140028BEC91E00995A1
:101500001092EB010ACF1092100234CFE4E6F2E021
:101510001382128288EE93E0A0E0B0E0848395838A
:10152000A683B7832EE131E03183208325EC30E0C0
:101530003587248724EC30E03787268720EC30E09D
:10154000318B208B21EC30E0338B228B22EC30E08E
:10155000358B248B26EC30E0378B268B118E128E48
:10156000138E148EE1E0F3E013821282848395835C
:10157000A683B78380E391E0918380836DE471E07B
:101580008FE193E00E94FB07E3E1F3E01382128214
:1015900082E491E09183808387E2848380E1818784
:1015A00082E0828713866CE471E08DE093E00C9416
:1015B000FB07CF93DF93CDB7DEB76E970FB6F894E6
:1015C000DEBF0FBECDBF789484B5826084BD84B584
:1015D000816084BD85B5826085BD85B5816085BD2E
:1015E00080916E00816080936E00109281008091E6
:1015F000810082608093810080918100816080936E
:101600008100809180008160809380008091B10092
:1016100084608093B1008091B00081608093B000BD
:1016200080917A00846080937A0080917A00826051
:1016300080937A0080917A00816080937A00809113
:101640007A00806880937A001092C100E091740261
:10165000F091750282E08083E0917002F091710256
:101660001082E0917202F09173028FEC80831092ED
:101670007C02E0917802F091790286E08083E0912B
:101680007602F0917702808180618083E09176021A
:10169000F0917702808188608083E0917602F091FA
:1016A0007702808180688083E0917602F0917702F2
:1016B00080818F7D808382E00E94400610924602E6
:1016C0001092450210924402109243020E942F038E
:1016D0008AE491E090934202809341028BE491E08E
:1016E0009093400280933F021092180380911D0353
:1016F0000E94400688E080931E0360E083E193E04F
:101700000E94F4030E94350666E571E083E193E0F0
:101710000E94DC0683E3809363028CE08093620284
:101720008093610210925F0210925E0210925D023D
:101730000E948D000E94DE0403EA10E0F80124916B
:101740006FE8E62E60E0F62EF7018491882399F089
:1017500090E0880F991FFC01EE58FF4FA591B491BE
:10176000FC01E859FF4F859194918FB7F8949C91B3
:10177000292B2C938FBF61E089E00E94830283E6CE
:1017800091E00E94EB0667E671E08DE093E00E9435
:10179000AE0768EE73E080E090E00E94D60297EB1F
:1017A000A92E90E0B92E20E0C22E20E0D22E33E305
:1017B000732E4CE0842E8FB7F8942090470230901F
:1017C00048024090490250904A028FBF2091550232
:1017D000309156024091570250915802221A330A12
:1017E000440A550A6091510270915202809153024D
:1017F00090915402F8EE2F16F3E03F064104510495
:10180000C8F06F5F7F4F8F4F9F4F6093510270936F
:101810005202809353029093540228513C4F4F4FF1
:101820005F4F2093550230935602409357025093D6
:101830005802C1CF6093590270935A0280935B02A1
:1018400090935C020E940C0560915D0270E0CE01F5
:1018500001960E9414086091590270915A02809179
:101860005B0290915C020E940C0560915E0270E048
:10187000CE0107960E9414086091590270915A0295
:1018800080915B0290915C020E940C0560915F0266
:1018900070E0CE0143960E9414081E861D86188AA9
:1018A0001F861A8A198ABE016D5E7F4FCE010D9682
:1018B0000E94E4076AE671E0CE010D960E9464077B
:1018C000BE01695F7F4F0E947A076AE671E00E945D
:1018D0006407BE016F5F7F4F0E947A071A8E198ED0
:1018E0001C8E1B8E1E8E1D8EBC01CE0149960E9441
:1018F000E407CE010D960E940C08CE0143960E948B
:101900000C08CE0107960E940C08CE0101960E9499
:101910000C080E94350680E00E94A5066CE671E086
:1019200083E193E00E94DC0681E00E94A5061A8212
:1019300019821C821B821E821D82BE01675E7F4F40
:10194000CE0101960E94E4076AE771E0CE0101969C
:101950000E9464076DE073E00E947A07FC014481F5
:1019600055816081718183E193E00E944D01CE0138
:1019700001960E940C084D8D5E8D698D7A8D84E6EE
:1019800092E00E944D016AE471E084E692E00E94D8
:10199000DC0668EE73E080E090E00E94D6021A82D6
:1019A00019821C821B821E821D82BE01675E7F4FD0
:1019B000CE0101960E94E4072D813E818091230390
:1019C000909124032817390709F064C089819A810E
:1019D00060911F03709120030097C9F06115710594
:1019E00031F4232B11F1FC01808190E01BC00E9497
:1019F0002F1018C067E671E08DE093E00E94AE07FB
:101A000061E089E00E94830283E691E041C06115B4
:101A1000710559F0232B49F0FB01808190E09195ED
:101A200081959109892B09F035C0709263028092EB
:101A300062028092610210925F0210925E02109226
:101A40005D020E948D000E94DE04F5018491F80180
:101A50009490F7016490662069F281110E945A0205
:101A6000E62DF0E0EE0FFF1FE458FF4FA591B49173
:101A70008C91982209F4BECF60E871E08DE093E08C
:101A80000E94AE0760E089E00E9483028CE791E04B
:101A90000E94EB06CE0101960E940C08CE014996E9
:101AA0000E940C08C114D10409F485CE0E94B7012C
:101AB000882309F480CE0E9400007DCE8DE093E063
:101AC0000E940C088FE193E00C940C08BB274A306D
:101AD00031F4992322F4BDE2909581959F4F0C94A7
:101AE000720DBB27FB015527AA27880F991FAA1F34
:101AF000A41710F0A41B83955051B9F7A05DAA3329
:101B000008F0A95DA193009779F7B111B1931192F3
:101B1000CB010C948B0DDC01FC01672F71917723B5
:101B2000E1F7329704C07C916D9370836291AE1798
:101B3000BF07C8F308950E94DD0DA59F900DB49FC7
:101B4000900DA49F800D911D112408952F923F9216
:101B50004F925F926F927F928F929F92AF92BF92BD
:101B6000CF92DF92EF92FF920F931F93CF93DF9369
:101B7000CDB7DEB7CA1BDB0B0FB6F894DEBF0FBEC6
:101B8000CDBF09942A88398848885F846E847D8413
:101B90008C849B84AA84B984C884DF80EE80FD8015
:101BA0000C811B81AA81B981CE0FD11D0FB6F8948B
:101BB000DEBF0FBECDBFED010895A29FB001B39F60
:101BC000C001A39F700D811D1124911DB29F700D46
:101BD000811D1124911D089597FB072E16F4009482
:101BE00007D077FD09D00E942A0E07FC05D03EF4ED
:101BF000909581959F4F0895709561957F4F0895B9
:101C0000A1E21A2EAA1BBB1BFD010DC0AA1FBB1F00
:101C1000EE1FFF1FA217B307E407F50720F0A21B72
:101C2000B30BE40BF50B661F771F881F991F1A94DF
:101C300069F760957095809590959B01AC01BD0109
:101C4000CF010895B7FF0C949B0D0E949B0D821B42
:101C5000930B0895AA1BBB1B51E107C0AA1FBB1F12
:101C6000A617B70710F0A61BB70B881F991F5A9528
:101C7000A9F780959095BC01CD010895EE0FFF1F47
:101C80000590F491E02D09940F931F93CF93DF9368
:101C90008230910510F482E090E0E0912703F0910A
:101CA000280330E020E0B0E0A0E0309799F421155F
:101CB000310509F44AC0281B390B24303105D8F509
:101CC0008A819B816115710589F1FB019383828370
:101CD000FE0111C0408151810281138148175907CB
:101CE000E0F04817590799F4109761F012960C9399
:101CF000129713961C933296CF01DF91CF911F91CB
:101D00000F9108950093270310932803F4CF211512
:101D1000310551F04217530738F0A901DB019A0150
:101D2000BD01DF01F801C1CFEF01F9CF9093280386
:101D300080932703CDCFFE01E20FF31F8193919390
:101D40002250310939832883D7CF20912503309140
:101D50002603232B41F4209102013091030130939B
:101D600026032093250320910001309101012115C4
:101D7000310541F42DB73EB7409104015091050162
:101D8000241B350BE0912503F0912603E217F3079E
:101D9000A0F42E1B3F0B2817390778F0AC014E5FDB
:101DA0005F4F2417350748F04E0F5F1F50932603EF
:101DB00040932503819391939FCFF0E0E0E09CCF87
:101DC000CF93DF930097E9F0FC01329713821282E0
:101DD000A0912703B0912803ED0130E020E0109797
:101DE000A1F420813181820F931F2091250330912E
:101DF00026032817390709F061C0F0932603E09302
:101E00002503DF91CF910895EA01CE17DF07E8F5AA
:101E10004A815B819E0141155105B1F7E901FB83C0
:101E2000EA8349915991C40FD51FEC17FD0761F45E
:101E3000808191810296840F951FE901998388839F
:101E4000828193819B838A83F0E0E0E012968D91FA
:101E50009C9113970097B9F52D913C911197CD0165
:101E60000296820F931F2091250330912603281795
:101E7000390739F6309751F510922803109227034D
:101E8000B0932603A0932503BCCFD383C2834081A4
:101E90005181840F951FC817D90761F44E5F5F4FBA
:101EA00088819981480F591F518340838A819B8182
:101EB000938382832115310509F0B0CFF093280375
:101EC000E09327039ECFFD01DC01C0CF1382128275
:101ED000D7CFB0E0A0E0EFE6FFE00C94A80D8C01B6
:101EE000009751F4CB010E94440E8C01C801CDB77C
:101EF000DEB7E0E10C94C40DFC01E60FF71F9C0176
:101F000022503109E217F30708F49DC0D901CD91A1
:101F1000DC911197C617D70798F0C530D10530F37B
:101F2000CE0104978617970708F3C61BD70B229795
:101F3000C193D1936D937C93CF010E94E00ED6CFD5
:101F40005B01AC1ABD0A4C018C0E9D1EA0912703AB
:101F5000B0912803512C412CF12CE12C109731F534
:101F600080912503909126038815990509F05CC09E
:101F70004616570608F058C0809100019091010163
:101F8000009741F48DB79EB740910401509105012F
:101F9000841B950BE817F90708F055C0F09326034A
:101FA000E0932503F90171836083A0CF8D919C910B
:101FB000119712966C90129713967C901397A81510
:101FC000B90559F56C0142E0C40ED11CCA14DB04FA
:101FD00020F1AC014A195B09DA011296159780F0DD
:101FE0006282738251834083D9016D937C93E114A3
:101FF000F10471F0D7011396FC93EE93129776CF0C
:1020000022968C0F9D1FF90191838083F301EFCFFE
:10201000F0932803E093270369CF4816590608F484
:102020002C017D01D3019ACFCB010E94440E7C018B
:10203000009749F0AE01B8010E942610C8010E9425
:10204000E00E870153CF10E000E050CFFB01DC0130
:1020500002C001900D9241505040D8F70895FB0105
:10206000DC018D91019080190110D9F3990B08952D
:10207000FB01DC0101900D920020E1F7089510E0D2
:10208000C2E6D0E004C0FE010E943E0E2196C33697
:10209000D107C9F7F894FFCF0000290380000000A2
:1020A0004000140054001F1C1F1E1F1E1F1F1E1F58
:1020B0001E1F00000000ED014D017A013A02AB0144
:1020C00089019D0100000000C5039803DB046E0335
:1020D00091037E036F0300000000D6064D01DB0470
:1020E0004C010D0A0030303A32303A303000494E5F
:1020F0004943494F2054494D4552004C4544204FD7
:102100004E003A005046494552524F2054494D45E1
:0C211000520020004C4544204F46460081
:107E0000112484B714BE81FFF0D085E080938100F7
:107E100082E08093C00088E18093C10086E0809377
:107E2000C20080E18093C4008EE0C9D0259A86E02C
:107E300020E33CEF91E0309385002093840096BBD3
:107E4000B09BFECF1D9AA8958150A9F7CC24DD24C4
:107E500088248394B5E0AB2EA1E19A2EF3E0BF2EE7
:107E6000A2D0813461F49FD0082FAFD0023811F036
:107E7000013811F484E001C083E08DD089C08234E0
:107E800011F484E103C0853419F485E0A6D080C0E4
:107E9000853579F488D0E82EFF2485D0082F10E0AE
:107EA000102F00270E291F29000F111F8ED06801E7
:107EB0006FC0863521F484E090D080E0DECF843638
:107EC00009F040C070D06FD0082F6DD080E0C81688
:107ED00080E7D80618F4F601B7BEE895C0E0D1E017
:107EE00062D089930C17E1F7F0E0CF16F0E7DF06D8
:107EF00018F0F601B7BEE89568D007B600FCFDCFD4
:107F0000A601A0E0B1E02C9130E011968C91119780
:107F100090E0982F8827822B932B1296FA010C0160
:107F200087BEE89511244E5F5F4FF1E0A038BF0790
:107F300051F7F601A7BEE89507B600FCFDCF97BE46
:107F4000E89526C08437B1F42ED02DD0F82E2BD052
:107F50003CD0F601EF2C8F010F5F1F4F84911BD097
:107F6000EA94F801C1F70894C11CD11CFA94CF0C13
:107F7000D11C0EC0853739F428D08EE10CD085E9AC
:107F80000AD08FE07ACF813511F488E018D01DD067
:107F900080E101D065CF982F8091C00085FFFCCF94
:107FA0009093C60008958091C00087FFFCCF809118
:107FB000C00084FD01C0A8958091C6000895E0E648
:107FC000F0E098E1908380830895EDDF803219F02E
:107FD00088E0F5DFFFCF84E1DECF1F93182FE3DFCA
:107FE0001150E9F7F2DF1F91089580E0E8DFEE27F6
:047FF000FF270994CA
:027FFE00040479
:00000001FF
